:100000000C941A090C9442090C9442090C9442096C
:100010000C9442090C9442090C9442090C94420934
:100020000C9442090C9442090C948B190C94FA1903
:100030000C9442090C9442090C9442090C94420914
:100040000C9442090C9442090C9442090C94420904
:100050000C9442090C9442090C9442090C942C1CF7
:100060000C9442090C9442090C9442090C944209E4
:100070000C9442090C9442090C9442090C944209D4
:100080000C9442090C9442090C9442090C944209C4
:100090000C9442090C9442090C9442090C944209B4
:1000A0000C9442090C9442090C94420904083E093C
:1000B000093E3F25251A1E2121123F21211E3F25E1
:1000C00025213F0505011E21293A3F04043F213F18
:1000D00021001021211F3F040A313F2020203F0230
:1000E000023F3F02043F1E21211E3F0909061E2137
:1000F000112E3F09093622252519013F01011F2034
:10010000201F0F10201F3F10103F3B04043B03042F
:100110003807312D2321102A2A3C3F2424181C2281
:1001200022141824243F1C2A2A2C047E05014C5238
:10013000523E3F040438243D20004040443D3F08E7
:100140001422213F20003E04043E3E04023C1C22B7
:10015000221C7E22221C1C22227E3E040204242A0F
:100160002A12021F22201E20201E0E10201E3E10CA
:10017000103E360808364E50503E322A26221E299E
:10018000251E223F2000322929261221251A0C0A79
:100190003F08172525191E252518013905031A259D
:1001A000251A0629291E002F000000200000002823
:1001B0001800022906000012000008142200001492
:1001C000140022140800001E210000211E00003F20
:1001D000210000213F00081C080008080800120840
:1001E000041200000000003E5B4F5B3E3E6B4F6B15
:1001F0003E1C3E7C3E1C183C7E3C181C577D571C08
:100200001C5E7F5E1C00183C1800FFE7C3E7FF0080
:1002100018241800FFE7DBE7FF30483A060E2629CE
:10022000792926407F050507407F05253F5A3CE791
:100230003C5A7F3E1C1C08081C1C3E7F14227F2257
:10024000145F5F005F5F06097F017F006689956A22
:10025000606060606094A2FFA29408047E040810AD
:10026000207E201008082A1C08081C2A08081E10D6
:100270001010100C1E0C1E0C30383E3830060E3E8E
:100280000E06000000000000005F000000070007ED
:1002900000147F147F14242A7F2A12231308646217
:1002A00036495620500008070300001C2241000078
:1002B00041221C002A1C7F1C2A08083E08080080D6
:1002C000703000080808080800006060002010086E
:1002D00004023E5149453E00427F4000724949496F
:1002E000462141494D331814127F102745454539A1
:1002F0003C4A4949314121110907364949493646A5
:100300004949291E00001400000040340000000884
:100310001422411414141414004122140802015927
:1003200009063E415D594E7C1211127C7F494949B4
:10033000363E414141227F4141413E7F4949494149
:100340007F090909013E414151737F0808087F0078
:10035000417F41002040413F017F081422417F40FE
:100360004040407F021C027F7F0408107F3E4141D5
:10037000413E7F090909063E4151215E7F09192945
:1003800046264949493203017F01033F4040403F2F
:100390001F2040201F3F4038403F63140814630370
:1003A000047804036159494D43007F4141410204EF
:1003B000081020004141417F0402010204404040F6
:1003C0004040000307080020545478407F284444EC
:1003D000383844444428384444287F385454541806
:1003E00000087E090218A4A49C787F080404780001
:1003F000447D40002040403D007F102844000041E3
:100400007F40007C047804787C08040478384444F5
:100410004438FC1824241818242418FC7C080404EC
:1004200008485454542404043F44243C4040207C55
:100430001C2040201C3C4030403C44281028444CA8
:100440009090907C4464544C440008364100000075
:10045000770000004136080002010204023C262316
:10046000263C1EA1A161123A4040207A38545455CE
:10047000592155557941215454784121555478409A
:1004800020545579400C1E52721239555555593920
:100490005454545939555454580000457C41000275
:1004A000457D420001457C40F0292429F0F02825B3
:1004B00028F07C545545002054547C547C0A097F14
:1004C0004932494949323248484832324A4848302C
:1004D0003A4141217A3A42402078009DA0A07D39DE
:1004E000444444393D4040403D3C24FF2424487E60
:1004F0004943662B2FFC2F2BFF0929F620C0887E4D
:10050000090320545479410000447D413048484A51
:1005100032384040227A007A0A0A727D0D19317D04
:100520002629292F28262929292630484D402038D8
:100530000808080808080808382F10C8ACBA2F1097
:100540002834FA00007B000008142A142222142AFE
:1005500014089500220095AA005500AAAA55AA558C
:10056000AA000000FF00101010FF00141414FF0078
:100570001010FF00FF1010F010F0141414FC001401
:1005800014F700FF0000FF00FF1414F404FC14141F
:1005900017101F10101F101F1414141F001010101C
:1005A000F0000000001F101010101F10101010F0AD
:1005B00010000000FF101010101010101010FF108D
:1005C000000000FF140000FF00FF00001F101700D4
:1005D00000FC04F414141710171414F404F40000AD
:1005E000FF00F714141414141414F700F71414145F
:1005F000171410101F101F141414F4141010F010FE
:10060000F000001F101F0000001F14000000FC1469
:100610000000F010F01010FF10FF141414FF14105D
:1006200010101F00000000F010FFFFFFFFFFF0F0B0
:10063000F0F0F0FFFFFF0000000000FFFF0F0F0FC2
:100640000F0F38444438447C2A2A3E147E020206A6
:1006500006027E027E0263554941633844443C04ED
:10066000407E201E2006027E020299A5E7A5991C65
:100670002A492A1C4C7201724C304A4D4D30304888
:10068000784830BC625A463D3E494949007E0101E6
:10069000017E2A2A2A2A2A44445F444440514A447B
:1006A0004040444A51400000FF0103E080FF000049
:1006B00008086B6B083612362436060F090F060041
:1006C0000018180000001010003040FF0101001F4A
:1006D00001011E00191D1712003C3C3C3C000000AB
:1006E0000000F0F89C8E8783878E9CF8F00000FE57
:1006F000FF0303030303070EFCF80000FEFF0303E0
:10070000030303070EFCF80000FFFF0000000000D9
:100710000000FFFF0000FEFF8383838383C7EE7C1E
:10072000380000F8FC0E07030303070EFCF8000076
:100730003F7FE0C08080C0E07F3FFFFF01010101FB
:10074000010101FFFF0000FFFF0C0C0C0C1C3E77A9
:10075000E3C100007FFFC0C0C0C0C0E0703F1F0009
:10076000001F3F70E0C0C0C0E0703F1F00007FFF6F
:10077000C1C1C1C1C1E3773E1C00001F3F70E0C092
:10078000C0C0E0703F1F000000000001FFFF01003B
:100790000000D5F08D14A1C881CFD9F1AF2000544D
:1007A00068616E6B7320666F7220706C6179696E20
:1007B000672E0062792063686F6B6D61682E6A70C6
:1007C000005B4352454449545D006561726E73207D
:1007D0006120626F6E75732E0054697073323A43F4
:1007E0006C656172696E6720616C6C206C696E6506
:1007F00073005B4558504C41494E5D00646F756213
:100800006C696E6720706F696E7473206561726EBB
:1008100065642E006C696E65732074726967676524
:100820007273204144442C00546970733A436C65E0
:100830006172696E67206164646974696F6E616C6E
:10084000005B425D416464206E65787420726F774E
:1008500020696E7374616E746C79005B415D5377CF
:1008600061702063656C6C73006C65667420746FD6
:1008700020726967687420746F2065726173652ED9
:100880000052756C653A436F6E6E656374206C69D7
:100890006E65732066726F6D005B4558504C414920
:1008A0004E5D0053434F52453A0047414D45204F5E
:1008B00056455200484947482053434F524520214E
:1008C0002100504155534500FE02000F0808000F5B
:1008D0000B0900070807000F0B09000F08080002AA
:1008E000020202FE00FF4141434141414341414177
:1008F000434141FF41414341414143414141434122
:1009000041FF41414341414143414141434141FF55
:1009100041414341414143414141434141FF414103
:100920004341414143414141434141FF00FF0101F6
:1009300001010101010101010101010101010101A7
:1009400001010101010101FF9F9010D0505010D012
:10095000505010D050D010D0509010D0D050109097
:100960009090909F00FF1010101010101010101099
:10097000101010FF10101010101010101010101088
:1009800010FF10101010101010101010101010FF89
:1009900010101010101010101010101010FF101068
:1009A0001010101010101010101010FF00E3220291
:1009B000F252A202F2B202F29202F292F202F25267
:1009C000A202F292620222E3FF000002030300038C
:1009D00002020003020300030102000302020000FE
:1009E000000000FF00FF04040404040404040404E1
:1009F000040404FF040404040404040404040404BC
:100A000004FF04040404040404040404040404FFB0
:100A100004040404040404040404040404FF04049B
:100A20000404040404040404040404FF00FF00009C
:100A300000000000000000000000000000000000B6
:100A400000000000000000FFE7240494F49404F484
:100A500014F404F4545404F494F4042424242424B6
:100A6000242424E700FF41414141414141414141AA
:100A7000414141FF414141414141414141414141A8
:100A800041FF41414141414141414141414141FFDA
:100A900041414141414141414141414141FF414188
:100AA0004141414141414141414141FF0001010179
:100AB0000101010101010101010101010101010126
:100AC0000101010101010101FF000000000000001F
:100AD0000000000000000000000000000000000016
:100AE000000000FF00FF1010101010101010101068
:100AF000101010FF10101010101010101010101007
:100B000010FF10101010101010101010101010FF07
:100B100010101010101010101010101010FF1010E6
:100B20001010101010101010101010FF0000000016
:100B300000000000000000000000000000000000B5
:100B40000000000000000000FF00000000000000A6
:100B50000000000000000000000000000000000095
:100B6000000000FF00FF040404040404040404045F
:100B7000040404FF0404040404040404040404043A
:100B800004FF04040404040404040404040404FF2F
:100B900004040404040404040404040404FF04041A
:100BA0000404040404040404040404FF000000001A
:100BB0000000000000000000000000000000000035
:100BC0000000000000000000FF0000000000000026
:100BD0000000000000000000000000000000000015
:100BE000000000FF00FF414141414141414141417D
:100BF000414141FF41414141414141414141414127
:100C000041FF41414141414141414141414141FF58
:100C100041414141414141414141414141FF414106
:100C20004141414141414141414141FF008080807A
:100C300080808080808080808080808080808080B4
:100C40008080808080808080FF8080808080808025
:100C50008080808080808080808080808080808094
:100C6000808080FF00FF9090909090909090909066
:100C70009090909F90909090909090909090909065
:100C8000909F909090909090909090909090909F46
:100C9000909090909090909090909090909F909045
:100CA0009090909090909090909090FF00FF808016
:100CB00080BE8A8E80BE8ABE80BEA0BE80AEAABA2A
:100CC00080BEAAAA808080FF3C5741524E007832F5
:100CD0002121004144442121002B00414C4C212181
:100CE000004C76205550002B00484954004D617847
:100CF00000FFFFFFFF83EBE3FF83EB83FF83BF83F3
:100D0000FFA3AB8BFF83ABABFFFFFFFF0101010133
:100D100001010101010101010101010101010101C3
:100D200001010101010101000000000000000000BC
:100D30000005000A000F00140019001E00280032F0
:100D4000003C0046005000640078008C00A000B415
:100D500000C800FA002C015E019001C201F40126D6
:100D60000258028A02EE025203B603E803B00446B8
:100D700005DC0540060807D0079808C409F00A1CDE
:100D80000C480DD80E681094118813000076657217
:100D90003A005B425D2048656C70003E003C0020DC
:100DA00000496E69744C763A005052455353205BAB
:100DB000415D20425554544F4E0048696768536363
:100DC0006F72653A000000000000000000000000A3
:100DD0000000000000000000000000000000000013
:100DE0000000000000000000000000000000000003
:100DF00000000000000000000000000000000000F3
:100E000000000000000000000000000000000000E2
:100E100000000000000000000000000000000000D2
:100E200000000000000000000000000000000000C2
:100E300000000000000000000000000000000000B2
:100E400000000000000000000000000000000000A2
:100E50000000000000000000000000000000000092
:100E60000000000080808080808000000080800082
:100E700000000000000000808000808080808000F2
:100E800000000080800080808080800000000000E2
:100E90000000000000008080808080800080800052
:100EA0000000000000000000000000808000000042
:100EB0000000000000000000000000000000000032
:100EC0000000000000000000000000000000000022
:100ED00000000000000000000000000000C0E0F082
:100EE000381C0E070301C1C1C1C1C0C0C0FFFF0053
:100EF00000000000000000FFFF00FFFF01010307EA
:100F00000E1C38FFFF00FFFF010103070E9CF8F0E5
:100F100060F0F8FC6E676361616101010001030725
:100F20000E1C3870E0E070381C0E07030100000052
:100F300000000000000000000000000000000000B1
:100F400000000000000000000000000000000000A1
:100F5000000000000000000000000000000001038D
:100F6000070E1C38706070381C0E0703017F7F600D
:100F7000606060606060607F7F007F7F00000000D5
:100F80000000007F7F007F7F10181C0E0703010008
:100F900000000103070E1C38706060600000000054
:100FA000000000007F7F0000000000000000000043
:100FB0000000000000000000000000000000000031
:100FC0000000000000000000000000000000000021
:100FD0000000000000000000000000000000000011
:100FE0000000000000000000000000000000000001
:1011C0000000000000080B000202020000090400F9
:1011D00000010202000005240010010524010101A4
:1011E00004240206052406000107058103100040BF
:1011F00009040100020A0000000705020240000085
:10120000070583024000000403090412010002EFF5
:101210000201404123368000010102030141726452
:1012200075696E6F204C4C430041726475626F7932
:101230000000BD1C11241FBECFEFDAE0DEBFCDBF22
:1012400011E0A0E0B1E0EEEEF8E502C005900D92ED
:10125000AE3AB107D9F727E0AEEAB1E001C01D927E
:10126000A931B207E1F719E0CAE1D9E004C021973A
:10127000FE010E94662CC931D107C9F70E940D1DDD
:101280000C94752C0C940000EBEBF2E0A0E0B8E0BD
:1012900000800EBC8111012C1197A0FDFDCF0192A1
:1012A000B9F70DB408959C01480F592F511D4138CD
:1012B000510514F040E850E0421BCB01877099279C
:1012C00091E001C0990F8A95EAF777FF02C0695F44
:1012D0007F4FFB0183E0F595E7958A95E1F7F69559
:1012E000FE2FEE27F795E795E20FF31FE554FD4F2C
:1012F000415030F08191DF011197892B8C93F8CF09
:1013000008954F925F926F927F928F929F92AF92C9
:10131000BF92CF92DF92EF92FF920F931F93CF93E2
:10132000DF93FB01E00FF11D1E161F060CF08FC0AE
:10133000603471050CF08BC0DB0177FF04C0AA2775
:10134000BB27A61BB70BA770BB27EB0177FD279622
:10135000E3E0D595C795EA95E1F777FF07C02197B8
:1013600068E070E0FB01EA1BFB0BDF01E02EE69476
:10137000E694E694F12C077019F0FFEFEF1AFF0ADC
:1013800030E08A01AE015695542F44275795479572
:10139000480F591F45545D4FBE01E0E8F0E05F0182
:1013A000A81AB90A88E090E03C016A1A7B0A6F3FEC
:1013B0008FEF78070CF43BC090E080E04A01E0E852
:1013C0008E0E911C6F3F760709F452C0FC01E00FAE
:1013D000F11FE4916A01C80ED91EF0E02F010A2E18
:1013E00001C0440C0A94EAF7F60150804528408277
:1013F0001097B1F06730710599F0F801E80FF91F07
:10140000E4916401C80ED91EF0E02F01062C02C041
:10141000559447940A94E2F7F6015080452840829B
:101420000196821793071CF4A816B90659F66F5F48
:101430007F4F020F131F40585F4FCB018C1B9D0B3A
:101440008E159F0524F46830710509F0B0CFDF9147
:10145000CF911F910F91FF90EF90DF90CF90BF90B1
:10146000AF909F908F907F906F905F904F90089576
:10147000109709F0C2CFD4CFFC018091BA02882323
:1014800011F13FB7F89482E08093E9002091F200D7
:10149000822F90E01816190614F481E090E088235A
:1014A00039F0289844E64093B9024091F100408316
:1014B000222339F02091F200211103C02BE6209362
:1014C000E8003FBF08958FEF9FEF08952FB7F8947E
:1014D00083E08093E9009091E800892F807295FF66
:1014E00004C09091F20080E4891B2FBF0895809181
:1014F000B10281110DC082E08093AD0284E080933F
:10150000AE021092B0021092AF0281E08093B1025D
:101510008DEA92E00895CF93DF931F92CDB7DEB7A7
:101520006983DC01ED91FC910280F381E02D41E0C3
:1015300050E0BE016F5F7F4F09950F90DF91CF9113
:10154000089583E08093E9008091F200882319F0E8
:101550008AE38093E80008950E94660A90E0089567
:10156000CF93DF931F92CDB7DEB7FC0184859585BD
:1015700097FD08C02FEF3FEF358724870F90DF914D
:10158000CF910895CE0101960E943C0A019719F46B
:10159000898190E0F3CF8FEF9FEFF0CF0F931F93F0
:1015A000CF93DF931F92CDB7DEB78C01FC0184850A
:1015B000958597FF0BC0CE0101960E943C0A0197CA
:1015C00071F4898190E0F80195878487F80184851A
:1015D00095850F90DF91CF911F910F9108958FEF17
:1015E0009FEFF1CFFC018485958597FD0BC09FB7D8
:1015F000F89482E08093E9008091F2009FBF90E030
:10160000019608959FB7F89482E08093E900809155
:10161000F2009FBF90E008954091A7025091A80268
:101620002091A5023091A60242175307B4F490917D
:10163000E8009570E1F39091E80092FD19C0809365
:10164000F1008091A7029091A80201968F739927CB
:10165000892B19F48EEF8093E8008091A702909176
:10166000A80201969093A8028093A70281E00895B2
:1016700080E00895DF92EF92FF920F931F93CF9334
:10168000DF93D82E8A01EB017B01E40EF51ECE1507
:10169000DF0559F0D7FE12C0FE0184910E940C0BA9
:1016A00021968111F4CF0FEF1FEFC801DF91CF9189
:1016B0001F910F91FF90EF90DF9008958881EECFFA
:1016C0000F931F93CF93DF931F92CDB7DEB782E0C6
:1016D000898342E450E065EC71E180E80E943A0BB6
:1016E0000E94770ADC0112960D911C9101151105DB
:1016F00089F0D801ED91FC910280F381E02DBE01CB
:101700006F5F7F4FC801099597FD04C0F801008500
:101710001185ECCF89810F90DF91CF911F910F91AF
:101720000895615030F02091F100FC012083019672
:10173000F8CF289884E68093B90208953FB7F894CB
:101740008091A1029091A202A091A302B091A40263
:1017500026B5A89B05C02F3F19F00196A11DB11D0C
:101760003FBFBA2FA92F982F8827BC01CD01620F48
:10177000711D811D911D42E0660F771F881F991F03
:101780004A95D1F708958F929F92AF92BF92CF92D0
:10179000DF92EF92FF926B017C010E949E0B4B0146
:1017A0005C01C114D104E104F104B9F00E949E0B64
:1017B000681979098A099B09683E7340810591057A
:1017C00080F321E0C21AD108E108F10888EE880E02
:1017D00083E0981EA11CB11CE4CFFF90EF90DF9036
:1017E000CF90BF90AF909F908F9008958F929F92CF
:1017F000AF92BF92CF92DF92EF92FF920F931F931F
:10180000CF93DF936C017B018A01809114018823BF
:1018100009F45CC08091BA02882309F457C0809112
:10182000AC0280FF05C08091E00082608093E00000
:10183000E801B12C8AEFA82E93E0892E2AE3922E9C
:10184000209711F4BB20D9F10E94660A81110AC0C9
:10185000AA94AA20D9F161E070E080E090E00E94B3
:10186000C30BEECF8C171D0611F00CF08C2F9FB719
:10187000F8948092E9002091E80025FD02C09FBF06
:10188000DFCF282F30E0C21BD30BF701815020F0AF
:1018900041914093F100FACFE20EF31EBB2021F0FC
:1018A0009092E800B12CEBCF8091E80085FDE7CF66
:1018B0009092E800BB24B394209709F3F3CF5D988E
:1018C00084E68093AB02101611063CF081E090E0B4
:1018D000F6019383828310E000E0C801DF91CF918D
:1018E0001F910F91FF90EF90DF90CF90BF90AF903E
:1018F0009F908F900895EF92FF920F931F93CF9335
:10190000DF938C017B01D0E0C0E0F701EC0FFD1FFD
:101910006491662361F0D801ED91FC910190F08112
:10192000E02DC8010995892B11F02196EECFCE014B
:10193000DF91CF911F910F91FF90EF900895AF929B
:10194000BF92CF92DF92EF92FF920F931F93CF93AC
:10195000DF936C017B018B01040F151FEB015E010E
:10196000AE18BF08C017D10759F06991D601ED91A3
:10197000FC910190F081E02DC6010995892B79F742
:10198000C501DF91CF911F910F91FF90EF90DF90F4
:10199000CF90BF90AF9008954F925F926F927F92D9
:1019A0008F929F92AF92BF92CF92DF92EF92FF926F
:1019B0000F931F93CF93DF934C015901FC2DC02F40
:1019C000D0E0CE01880D991D181619060CF067C0DD
:1019D0009B012E0D311D121613060CF060C06034F1
:1019E00071050CF05CC04115510509F458C0262F53
:1019F0002770F22EDB0177FD179633E0B595A7959A
:101A00003A95E1F73A2F77FF04C0FF2011F03FEF3E
:101A10003A0F662777276819790997FC02C070E0AA
:101A200060E0803891050CF44BC090E89819961B43
:101A3000A32F032E000CBB0B1A2F10953F3F0CF069
:101A400010E021E08E2D877009F420E0E694E69402
:101A5000E694E20EAE0DB11D19971CF028E0E22EBF
:101A6000E31AE11A310F20E83203D0011124A80D46
:101A7000B91DA60FB71F019F600D711D1124460FE0
:101A8000571F0F2D0F2C000C110BF33009F41CC144
:101A9000C8F4F13009F4D0C0F23009F47CC0DF9111
:101AA000CF911F910F91FF90EF90DF90CF90BF905B
:101AB000AF909F908F907F906F905F904F90089520
:101AC000902FB5CFFA3FB1F1232F2E0DFB3F39F701
:101AD000321729F3BD0165547D4FD12CC12CC91695
:101AE00008F0A4C0FA01EC0DFD1DE491F0E04F01F7
:101AF000002E02C0880C991C0A94E2F737FD06C03C
:101B0000FB018081E82CE0948E218083FF2061F02E
:101B1000373054F45B01F0E8AF0EB11CE92CE094CF
:101B2000F50180818E218083FFEFCF1ADF0A6F5F7E
:101B30007F4FD5CF232F2E0D321709F4B0CFBD0123
:101B400065547D4FD12CC12CC91608F069C0FA012B
:101B5000EC0DFD1DE491F0E04F01002E02C0880C59
:101B6000991C0A94E2F737FD04C0FB0180818829A3
:101B70008083FF2051F0373044F45B01F0E8AF0E72
:101B8000B11CF501808189298083FFEFCF1ADF0A1C
:101B90006F5F7F4FD9CF6FEF70E00F2C02C0660FE1
:101BA000771F0A94E2F760957095772E232F2E0DFC
:101BB000321709F474CFFD01E554FD4F6F01B12CCC
:101BC000A12CA91638F5FA01EA0DFB1DE491F0E00D
:101BD0002F01002E02C0440C551C0A94E2F737FD79
:101BE00005C0F6018081862384298083FF2059F077
:101BF00037304CF44601F0E88F0E911CF4018081DF
:101C0000872185298083FFEFAF1ABF0A8FEFC81A9B
:101C1000D80AD7CF3F5F4C0F5D1FA058BF4FC8CF2A
:101C20003F5F4C0F5D1FA058BF4F86CF3F5F4C0FEB
:101C30005D1FA058BF4F4CCF6A0D7B1D232F2E0D6B
:101C4000321709F42CCFFD01E554FD4F6F01B12C83
:101C5000A12CA91688F5FB01EA0DFB1D8490912C9F
:101C6000002E02C0880C991C0A94E2F7809490948C
:101C7000FA01EA0DFB1D6490712C002E02C0660C67
:101C8000771C0A94E2F737FD05C0F60180818821B0
:101C900086298083FF2049F037303CF4F601E05874
:101CA000FF4F8081892187298083FFEFAF1ABF0A08
:101CB0008FEFC81AD80ACDCF3F5F4C0F5D1F6C0F56
:101CC0007D1FA058BF4FBCCFC92ED12CFA01E60F03
:101CD000F71FA554BD4F00E810E00C191D09CC19E1
:101CE000DD09BE01660F771F41E050E06A010F2C4D
:101CF00001C0CC0C0A94EAF7592F2E2D792ECF93E0
:101D0000DF93ED01EF96EF9622968590A590FF2048
:101D100059F08C9C4001AC9C500137302CF4E88089
:101D2000B094EB20E928E99233233AF0EC90A094A8
:101D3000EA20E828ED920C949E0E11965A9529F708
:101D40002A9551F0572D33951124E60FF11DA00F60
:101D5000B11DC00FD11DD9CFDF91CF9111249FCEDE
:101D60002D9A0895BC0190E080E00C94C30B8FB1D4
:101D70008095807F669B88601C9B8460089580E0CE
:101D8000EBEBF2E081118FEF00248193819381933B
:101D900081930394D1F710921802109217021092B7
:101DA0001A0210921902089590919802982329F42A
:101DB00090919902982381E009F480E0089580E0F1
:101DC0000C94440980389105B8F460347105A0F48E
:101DD00020E191E061FD94E060FD990F62FD929534
:101DE000687F269FD0011124A80FA554BD4F8C9168
:101DF00040FF03C0892B8C93089590958923FBCFD6
:101E00008F929F92AF92BF92CF92DF92EF92FF920A
:101E10000F931F93CF93DF936D3089F0C09017021B
:101E2000D09018026A30D1F410921A02109219025E
:101E300088E0C80ED11CD0921802C092170281E02F
:101E400090E0DF91CF911F910F91FF90EF90DF9085
:101E5000CF90BF90AF909F908F90089500911902FE
:101E600010911A02E5E06E9FE0011124CE51DE4F81
:101E70004801F12CF5E0E12CFF1629F0CE01019686
:101E8000FE01E490EC01B12CA12C4E2D4170B60165
:101E90006A0D7B1DC4010E94E20EE694FFEFAF1AAB
:101EA000BF0A88E0A816B10481F7F394EFEF8E1A09
:101EB0009E0AF6E0FF12DECF0A5F1F4F10931A0250
:101EC00000931902BCCFDF92EF92FF920F931F9302
:101ED000CF93DF937C01D22E8B01040F111DEB01F8
:101EE00077FF02C0D0E0C0E0C8010134110514F052
:101EF00080E490E0C817D9073CF44D2DBE01C7011E
:101F00000E94E20E2196F0CFDF91CF911F910F91A9
:101F1000FF90EF90DF900895EF92FF920F931F9341
:101F2000CF93DF937C018B01C42FD22F0E945309E2
:101F3000B8016D0F711D615071096034710524F491
:101F40004C2FC7010E94530921E04D2FB801C70152
:101F50000E94630FC7018C0F911D21E04D2FB80126
:101F60000197DF91CF911F910F91FF90EF900C940B
:101F7000630F2F923F924F925F926F927F928F9258
:101F80009F92AF92BF92CF92DF92EF92FF920F9308
:101F90001F93CF93DF9300D01F92CDB7DEB79B8303
:101FA0008A837B016A0109838901061B170B17FFCE
:101FB00003C011950195110946018A819B81881AF8
:101FC000990A97FE03C09194819491088016910616
:101FD0005CF49C2D8D2D6901292F382F9A818B81DE
:101FE000FB82EA82E92EF82E8A819B81C816D906E7
:101FF0005CF49E2D8F2D7901292F382F9A818B81AA
:10200000DB82CA82C92ED82E16018A819B81281AAA
:10201000390A29014E185F0857FE03C051944194B4
:102020005108310137FE03C09FEF691A790A759490
:1020300067948FEFE216F3060CF481E0A82E880F68
:10204000BB088A819B81C816D906CCF04981BC01A6
:10205000C701801691061CF0B7018A819B810E94FE
:10206000E20E6418750877FE04C0EA0CFB1C620CD3
:10207000731C8A819B8101969B838A83E2CF0F9098
:102080000F900F90DF91CF911F910F91FF90EF90E4
:10209000DF90CF90BF90AF909F908F907F906F9088
:1020A0005F904F903F902F900895E0910B07F09133
:1020B0000C0792819923C9F0E0910D07F0910E076A
:1020C00092819923A1F0E0910F07F091100792817E
:1020D00091110AC092E021E022839383808364837C
:1020E0005683458386E48183089590E0F4CF91E0A0
:1020F000F2CF95E08902F0011124E60FF11D67FD92
:10210000FA95EE0FFF1FE55EFD4F0190F081E02D87
:10211000108212821382809184029091850201962E
:1021200090938502809384020895CF93DF9330E0EB
:1021300020E080E0EBE1F2E060E081110BC0A081E3
:10214000B1819C919923B1F00E94791080E0DF91D8
:10215000CF910895DF01A20FB31FCD91DC911197AC
:102160001A970D90BC91A02D98819C9399811196FE
:102170009C93188232966F5F6530F9F6265F3F4F69
:102180008F5F8A30B9F681E0E2CF0F931F93CF9330
:10219000DF93CDB7DEB764970FB6F894DEBF0FBEFE
:1021A000CDBF24E1EFE1F1E0DE01119601900D9247
:1021B0002A95E1F7FE01319650E0019111912191AC
:1021C000319141E0450F60177107820793071CF0BA
:1021D000542F453091F781E0850F64960FB6F8943F
:1021E000DEBF0FBECDBFDF91CF911F910F9108953C
:1021F00080911202E82FEE0FFF0BE055FE4F87FD96
:1022000004C0129212928150FACF109212020895D5
:10221000809112028150E82FEE0FFF0BE055FE4F28
:1022200091E087FD06C0B291A29112969C938150D5
:10223000F8CF08959C01909112029150E92FEE0F72
:10224000FF0BE055FE4F97FD07C052914291421798
:10225000530721F09150F7CF80E0089581E0089571
:1022600020911202E22FEE0FFF0BE255FE4F9183F9
:1022700080832F5F2093120208954F925F926F9296
:102280007F928F929F92AF92BF92CF92DF92EF9206
:10229000FF920F931F93CF93DF93E82E082E000C2D
:1022A000FF08C62E062E000CDD0895E09E9D9001CD
:1022B0009F9D300D1124F901EC0DFD1DEE0FFF1F48
:1022C000E55EFD4F00811181F8018080882009F4CE
:1022D0006FC1542E962ED82FF4E06F131AC081E0F0
:1022E00080938802F80182830E940811C82D8C2FE8
:1022F000DF91CF911F910F91FF90EF90DF90CF90E2
:10230000BF90AF909F908F907F906F905F904F9015
:102310000895F801818181115AC1F1E04F13A5C0E0
:1023200036018FEF681A780AF901E60DF71DEE0FF6
:10233000FF1FE55EFD4FA080B180F501C081CC2379
:1023400001F1C5010E941A11C82F811186C0F50143
:102350008181582EE89451F8F1E05F1212C0C80153
:102360000E943011F501C281C11172C041E061E0EB
:10237000690D8D2F0E943D11C82F811102C00E944E
:10238000A91CD9300CF0BCC15701FFEFAF1ABF0A2E
:1023900085E08A9DF0018B9DF00D1124E60DF71D5F
:1023A000EE0FFF1FE55EFD4FE080F180F7018081B9
:1023B0008823E1F0C7010E941A11811117C0F701AB
:1023C00081818D7F99F4C8010E943011F701C2818B
:1023D000C11145C041E061E0690D81E08D0F0E94AF
:1023E0003D11C82F811102C00E94A91C85E08A9D61
:1023F000F0018B9DF00D1124EC0DFD1DEE0FFF1F64
:10240000E55EFD4FE080F180F7018081882309F4CB
:1024100077C1C7010E941A11811172C1F701818130
:102420008150823008F06CC1C8010E943011F70160
:10243000C281C11160C140E0692D81E08D0F0E9411
:102440003D11C82D81115CC10E94A91CC0E058C17A
:10245000F80152820E94081194CFC0E092CF81E02F
:10246000F80182830E940811C1CF1D160CF0A7C08D
:10247000970121503109929FF001939FF00D112493
:10248000EC0DFD1DEE0FFF1FE55EFD4FA080B1803E
:10249000F501C081CC2301F1C5010E941A11C82F9A
:1024A00081118DC0F5018181782EE89471F8F1E0F9
:1024B0007F1212C0C8010E943011F501C281C11102
:1024C00079C041E0692D8FEF8D0F0E943D11C82F1B
:1024D000811102C00E94A91C19140CF011C15601EF
:1024E000F1E0AF1AB10885E08E9DF0018F9DF00DEF
:1024F0001124EA0DFB1DEE0FFF1FE55EFD4FC080AE
:10250000D180F60180818823E1F0C6010E941A1172
:10251000811117C0F60181818150823090F4C80189
:102520000E943011F601C281C1114BC040E06FEF33
:10253000690D8D2F0E943D11C82F811102C00E948C
:10254000A91C1D160CF0D3CEF1E0EF1AF10885E0BE
:102550008E9DF0018F9DF00D1124EA0DFB1DEE0FF5
:10256000FF1FE55EFD4FE080F180F7018081882349
:1025700009F4BDCEC7010E941A118111B8CEF7012E
:102580008181882319F0833009F0B1CEC8010E94FF
:102590003011F701C281C1116BC16FEF690D40E0CD
:1025A0008FEF8D0F0E943D118111A0CE0E94A91CBA
:1025B000C0E09DCEF80172820E9408118DCFC0E06C
:1025C0008BCF81E0F80182830E940811BACF81305D
:1025D00009F054C1F1E04F13A4C036018FEF681A1F
:1025E000780AF901E60DF71DEE0FFF1FE55EFD4FBE
:1025F000A080B180F501C081CC23E1F0C5010E942B
:102600001A11C82F811186C0F50181818D7F91F447
:10261000C8010E943011F501C281C11176C041E0AC
:1026200061E0690D8D2F0E943D11C82F811102C0FC
:102630000E94A91C1D160CF063C05701F1E0AF1AEF
:10264000B10885E08A9DF0018B9DF00D1124E60D07
:10265000F71DEE0FFF1FE55EFD4FE080F180F701F3
:102660008081882301F1C7010E941A1181111BC0CA
:10267000F7018181782EE89471F8F1E07F1213C0A0
:10268000C8010E943011F701C281C11145C041E06B
:1026900061E0690D8FEF8D0F0E943D11C82F8111F0
:1026A00002C00E94A91C85E08A9DF0018B9DF00D5F
:1026B0001124EC0DFD1DEE0FFF1FE55EFD4FE080C8
:1026C000F180F70180818823D9F0C7010E941A1197
:1026D000811116C0F7018181882311F0833081F4C4
:1026E000C8010E943011F701C28140E0692D8FEFCF
:1026F000CC2309F4A3CE81E0F80182830E94081163
:102700009110F5CD0E94F810F2CDF80152820E948E
:10271000081190CFC0E08ECFF80172820E9408119C
:10272000C2CFD9300CF09CC097012F5F3F4F929FD2
:10273000F001939FF00D1124EC0DFD1DEE0FFF1F16
:10274000E55EFD4FA080B180F501C081CC23E1F0B2
:10275000C5010E941A11C82F811182C0F501818123
:102760008D7F91F4C8010E943011F501C281C11121
:1027700071C041E0692D81E08D0F0E943D11C82F8D
:10278000811102C00E94A91C19140CF0B9CF560186
:10279000F1E0AF1AB10885E08E9DF0018F9DF00D3C
:1027A0001124EA0DFB1DEE0FFF1FE55EFD4FC080FB
:1027B000D180F60180818823E9F0C6010E941A11B8
:1027C000811118C0F6018181882311F0833091F4C2
:1027D000C8010E943011F601C281C11143C040E01E
:1027E0006FEF690D8D2F0E943D11C82F811102C01E
:1027F0000E94A91CD9300CF07ACDFFEFEF1AFF0A26
:1028000085E08E9DF0018F9DF00D1124EA0DFB1DDA
:10281000EE0FFF1FE55EFD4FE080F180F701808144
:10282000882309F464CDC7010E941A1181115FCD7C
:10283000F70181818150823008F059CDC8010E9492
:102840003011F701C281C11113C06FEF690D40E073
:1028500081E0A7CE81E0F80182830E94081194CF25
:10286000C0E092CF81E0F80182830E940811C2CFBC
:1028700081E0F80182830E94081139CD823009F08D
:102880006AC1F1E04F13C8C036018FEF681A780AA9
:10289000F901E60DF71DEE0FFF1FE55EFD4FA0806D
:1028A000B180F501C081CC23E1F0C5010E941A116D
:1028B000C82F811184C0F50181818D7F91F4C801F9
:1028C0000E943011F501C281C11173C041E061E085
:1028D000690D8D2F0E943D11C82F811102C00E94E9
:1028E000A91C1D160CF077C02701F1E04F1A510802
:1028F00085E0849DF001859DF00D1124E60DF71D06
:10290000EE0FFF1FE55EFD4FA080B180F5018081D5
:10291000882301F1C5010E941A1181111BC0F50124
:102920008181782EE89471F8F1E07F1213C0C8011C
:102930000E943011F501C281C11143C041E061E044
:10294000690D8FEF8D0F0E943D11C82F811102C0BC
:102950000E94A91C85E0849DF001859DF00D112445
:10296000EC0DFD1DEE0FFF1FE55EFD4FA080B18059
:10297000F5018081882379F1C5010E941A11811126
:102980002AC0F5018181811126C0C8010E94301141
:10299000F501C281C1111AC040E0692D8FEF8D0F82
:1029A0000E943D11C82D811116C00E94A91CC0E0D3
:1029B00012C081E0F80182830E94081192CFC0E02A
:1029C00090CFF80172820E940811C4CF81E0F80113
:1029D00082830E940811F8018281882309F490CE35
:1029E0001D160CF08DCEF1E0EF1AF10885E08E9DFA
:1029F000F0018F9DF00D1124EC0DFD1DEE0FFF1F5A
:102A0000E55EFD4F0190F081E02D8181833009F07A
:102A100077CE81E0828374CE16160CF0E0C13601C9
:102A2000F1E06F1A7108F901E60DF71DEE0FFF1FB7
:102A3000E55EFD4FA080B180F501C081CC23E9F0B7
:102A4000C5010E941A11C82F81117DC0F501818135
:102A50008150823090F4C8010E943011F501C2818A
:102A6000C1116BC040E06FEF690D8D2F0E943D11C9
:102A7000C82F811102C00E94A91C1D160CF0ABCFFB
:102A8000C701019725E0289FF001299FF00D11242F
:102A9000E60DF71DEE0FFF1FE55EFD4FA080B18034
:102AA000F50180818823F1F0C5010E941A1181117E
:102AB00019C0F5018181882311F0833099F4C80190
:102AC0000E943011F501C281C1113FC040E06FEF9B
:102AD000690D8FEF8D0F0E943D11C82F811102C02B
:102AE0000E94A91CC701019725E0289FF001299F9A
:102AF000F00D1124EC0DFD1DEE0FFF1FE55EFD4FE7
:102B0000A080B180F5018081882309F464CFC501DC
:102B10000E941A1181115FCFF5017180F1E07F12DF
:102B20005ACFC8010E943011F501C28141E0CC2387
:102B300009F433CFF80172824CCF81E0F80182832F
:102B40000E9408119ACFC0E098CF81E0F8018283FB
:102B50000E940811C7CF833009F078CC81E0481378
:102B6000A2C03601EFEF6E1A7E0AF901E60DF71DDD
:102B7000EE0FFF1FE55EFD4FA080B180F501C08123
:102B8000CC23E9F0C5010E941A11C82F811183C01E
:102B9000F50181818D7F813091F4C8010E9430114F
:102BA000F501C281C11171C041E061E0690D8D2F55
:102BB0000E943D11C82F811102C00E94A91CD9306A
:102BC0000CF0EEC02701FFEF4F1A5F0A85E0849DED
:102BD000F001859DF00D1124E60DF71DEE0FFF1F8E
:102BE000E55EFD4FA080B180F50180818823E1F092
:102BF000C5010E941A11811117C0F50181818D7FD5
:102C000099F4C8010E943011F501C281C11145C07B
:102C100041E061E0690D81E08D0F0E943D11C82FF8
:102C2000811102C00E94A91C85E0849DF001859D50
:102C3000F00D1124EC0DFD1DEE0FFF1FE55EFD4FA5
:102C4000A080B180F5018081882309F4A9C0C50165
:102C50000E941A118111A4C0F5017180F1E07F1268
:102C60009FC0C8010E943011F501C281C11194C0FA
:102C700040E0692D81E08D0F0E943D11C82D81112A
:102C80008FC00E94A91CC0E08BC081E0F801828344
:102C90000E94081194CFC0E092CF81E0F8018283B6
:102CA0000E940811C1CF16160CF0A0C03601F1E049
:102CB0006F1A7108F901E60DF71DEE0FFF1FE55EB3
:102CC000FD4FA080B180F501C081CC23E1F0C501AA
:102CD0000E941A11C82F811187C0F50181818D7F53
:102CE00091F4C8010E943011F501C281C11148C0A0
:102CF00040E06FEF690D8D2F0E943D11C82F8111AB
:102D000002C00E94A91CD9300CF04AC0C70101962C
:102D100025E0289FF001299FF00D1124E60DF71DF5
:102D2000EE0FFF1FE55EFD4FA080B180F5018081B1
:102D30008823E9F0C5010E941A11811118C0F5011C
:102D400081818150823098F4C8010E943011F501D0
:102D5000C281C1111BC040E06FEF690D81E08D0F92
:102D60000E943D11C82F811102C00E94A91CC701F9
:102D7000019625E0289FF001299FF00D11245ACFDC
:102D800081E0F80182830E940811BDCF81E0F80143
:102D900082830E940811EBCFF80172820E94081111
:102DA000F8018281882309F4ABCCD9300CF0A8CC8F
:102DB000FFEFEF1AFF0A85E08E9DF0018F9DF00D69
:102DC0001124EC0DFD1DEE0FFF1FE55EFD4F019080
:102DD000F081E02D8181823009F092CC1ACE1D164F
:102DE0000CF0E5CDC0E07ECEC0E08DCFC0E0D930A4
:102DF0000CF4BDCF48CFCF92EF920F93CF93DF93D8
:102E0000EC012E816A3069F48D818C836985260FEF
:102E10002E8381E090E0DF91CF910F91EF90CF90E2
:102E20000895962FAC8161E0620F9A3309F48EC049
:102E300038F59B3209F480C0A0F4953209F478C0CB
:102E400048F4913209F488C098859C5F8C81890F81
:102E50008C83DFCF983209F473C09932A9F797E4D5
:102E600030C09E3209F476C038F49C3209F470C048
:102E70009D3251F79BE425C0903330F39C5F21C015
:102E80009B3590F4913408F055C09D3309F45CC033
:102E900020F49C33C9F693E414C09E3309F452C065
:102EA0009F3391F691E40DC09D3509F447C020F49D
:102EB0009B3551F698E405C08FE9890F97548A3104
:102EC00018F6062E000C770B0A2E000CBB0BECEA52
:102ED000F0E02DEA30E08F81813009F03FC00491AD
:102EE000F901E4904EEA50E09923D1F041E050E03E
:102EF0008E2D877011F450E040E02E2D26952695FA
:102F00002695240F352F311D029FF001039FF00DF0
:102F100011249E9FA0019F9F500D112442555F4F89
:102F20009AEFC92E30E020E0CD010E94CC0C8CCF6E
:102F30009CE4C7CF9154C5CF9AE4C3CF99E4C1CFE5
:102F400096E4BFCF95E4BDCF94E4BBCF92E4B9CF74
:102F500090E4B7CF9FE3B5CF9EE3B3CF0491F901DF
:102F6000E4904EEA50E09923D1F041E050E08E2DFC
:102F7000877011F450E040E02E2D26952695269579
:102F8000240F352F311D029FF001039FF00D1124F6
:102F90009E9FA0019F9F500D112442555F4F8BEFC4
:102FA000C82EC0CF089590E080E008958F929F9240
:102FB000AF92BF92EF92FF920F931F93CF93DF9345
:102FC000CDB7DEB7A1970FB6F894DEBF0FBECDBF69
:102FD0007C01FA01CB0119A2223008F42AE08E010B
:102FE0000F5D1F4F822E912CB12CA12CBF01A5018A
:102FF00094010E946A2AF901CA016A3074F5605D81
:10300000D8016E938D01232B242B252B79F790E08B
:1030100080E0109789F0FD0101900020E9F73197D9
:10302000AF014A1B5B0BD701ED91FC910280F3814C
:10303000E02DB801C7010995A1960FB6F894DEBF3F
:103040000FBECDBFDF91CF911F910F91FF90EF90F9
:10305000BF90AF909F908F900895695CD1CFCF9231
:10306000DF92EF92FF920F931F93CF93DF9377FF3F
:1030700021C06A017B01EC01E881F9810190F081B6
:10308000E02D6DE209958C0144275527BA014C19B2
:103090005D096E097F092AE0CE010E94D617800FD4
:1030A000911FDF91CF911F910F91FF90EF90DF90D3
:1030B000CF9008952AE0DF91CF911F910F91FF905B
:1030C000EF90DF90CF900C94D617AB01770F660B83
:1030D000770B0C942F180C94222A7F928F929F9238
:1030E000AF92BF92CF92DF92EF92FF920F931F9316
:1030F000CF93DF93CDB7DEB72A970FB6F894DEBF34
:103100000FBECDBF0E949510811103C083E0809354
:103110009A0285E0E3E3F1E0DE01169601900D925C
:103120008A95E1F72BE132E080E0F9019AE0A08195
:10313000B1814C91411161C091503A969111F7CFF4
:103140008E8311E061C08E010A5F1F4F6E01BBE0EC
:10315000CB0ED11C7724739484E0882E912CA12C63
:10316000B12CF801F1908F01FFEFFF16A1F00E9442
:10317000CA29EF2DEE0FFF0BEB58FD4FE080F180D9
:10318000D7017C92A50194010E94382AF70161833E
:10319000C016D10631F7E09194020E2E000CFF0B01
:1031A000E35CFE4F6081FEE16F02B0011124709379
:1031B0008F0260938E02072E000C880B990B0E94E1
:1031C000452B60938A0270938B0280938C029093BC
:1031D0008D022A960FB6F894DEBF0FBECDBFDF91E9
:1031E000CF911F910F91FF90EF90DF90CF90BF9004
:1031F000AF909F908F907F9008952E5F3F4F8F5F8D
:10320000853009F092CF10E00E94CA2922E030E018
:1032100040E050E00E94382A03E0060F85E0E8E332
:10322000F1E0DE01119601900D928A95E1F796E0AA
:10323000E92EF12CEC0EFD1EE10EF11C17FDFA94A7
:1032400025E0822E912CA12CB12CDD24DA941017CC
:103250000CF079CF0E94CA29A50194010E94382A56
:10326000E1E0F0E0EC0FFD1FE60FF71F80818F3FDC
:1032700071F3D7018D937D01D0821F5FE8CFFF925C
:103280000F931F93CF93DF93EC01F62E08811981E2
:10329000C8010E94222AF81621F06F2DC8010E9451
:1032A0002A2ACE01DF91CF911F910F91FF900895AF
:1032B000AF92BF92CF92DF92EF92FF920F931F9344
:1032C000CF93DF9300D0CDB7DEB78B016B0124E045
:1032D000C20ED11C7B015C01A61AB70AC5018E0D76
:1032E0009F1D9A838983F70161917F01CE01019629
:1032F0000E943F19EC14FD0489F7C8010F900F904C
:10330000DF91CF911F910F91FF90EF90DF90CF90C1
:10331000BF90AF9008951F920F920FB60F92112495
:103320008F939F938091E1009091E100937F909320
:10333000E10083FF0FC01092E90091E09093EB0051
:103340001092EC0092E39093ED001092BA0298E094
:103350009093F00082FF22C093E09093E900909157
:10336000F200992319F09AE39093E8009091AB0250
:10337000992341F09091AB0291509093AB0291113F
:1033800001C05D9A9091B902992341F09091B902E0
:1033900091509093B902911101C0289A84FF18C0EE
:1033A0008091E2008E7E81608093E2008091E10056
:1033B0008F7E8093E1008091AC028E7E806180934D
:1033C000AC029F918F910F900FBE0F901F90189598
:1033D00080FFF7CF8091E2008E7E80618093E200D3
:1033E0008091E1008E7E8093E1008091AC028E7E20
:1033F0008160E5CF1F920F920FB60F921124CF92EA
:10340000DF92EF92FF920F931F932F933F934F936F
:103410005F936F937F938F939F93AF93BF93EF933C
:10342000FF93CF93DF93CDB7DEB76C97DEBFCDBFF1
:103430001092E9008091E80083FF25C068E0CE018A
:1034400045960E94910B82EF8093E8008D8987FF5B
:1034500039C09091E80090FFFCCF982F907609F04A
:1034600034C19E894F89588D2F89F88C911131C0B4
:10347000803861F58091AA028093F1001092F100EA
:103480008EEF8093E8006C960FB6F894DEBF0FBE07
:10349000CDBFDF91CF91FF91EF91BF91AF919F9100
:1034A0008F917F916F915F914F913F912F911F91DC
:1034B0000F91FF90EF90DF90CF900F900FBE0F9085
:1034C0001F9018959EEF9093E800C7CF1092F100DF
:1034D000D5CF913059F48111D3CF4130510581F6C8
:1034E0008091AA028D7F8093AA02CACF933049F4BB
:1034F0008111C6CF4130510519F68091AA02826030
:10350000F2CF953041F48091E80080FFFCCF206835
:103510002093E300B5CF963009F0A9C00B8D1C8D28
:1035200022E01092E9001092A8021092A702F21273
:103530002EC01092A6021092A5020E94600B1F825C
:1035400099E09983FA8291E09E8390EA98879AEFB6
:1035500099872091A7023091A802275F3F4F3C83B3
:103560002B838D831092E9001092A8021092A7027B
:103570001093A6020093A50249E050E0BE016F5FE0
:103580007F4F80E00E943A0B0E94600B79CF10932E
:10359000A6020093A5020E94770ADC0112960D9103
:1035A0001C910115110509F451C1D801ED91FC914F
:1035B0000480F581E02DBE016B5E7F4FC801099547
:1035C000009709F03EC1F80100851185EACFF3E0CC
:1035D000FF120EC08F89882309F440C0823061F445
:1035E00040E867E089E292E10E94761C811148CFB1
:1035F00081E28093EB0047CF813029F440E86BE013
:103600008DE192E1F1CF833099F70E94770ADC01D6
:103610001296ED90FC908E010F5F1F4F6801E11430
:10362000F10479F0D701ED91FC910680F781E02D4E
:10363000B801C7010995080F111DF701E084F18455
:10364000EECFD8011C92F60101900020E9F73197E6
:10365000BF016C197D0940E0C601C6CF67E072E189
:10366000FB01449150E080E80E943A0B09CF97306B
:1036700009F4BECF983021F481E08093F10000CFAF
:10368000993009F0FDCE837009F0B2CFE4E8F1E0A3
:1036900081E031E096E32191222371F08093E900EB
:1036A0003093EB00DF0111972C912093EC00909365
:1036B000ED008F5F873079F78EE78093EA001092F4
:1036C000EA008F898093BA02DBCE8B8D9C8D10929D
:1036D000E9001092A8021092A7029093A60280938C
:1036E000A502898D811192C08E899D89913A49F4F4
:1036F000813209F07DCF47E050E06DE071E080E07D
:10370000B3CF913209F074CF833269F48F89988DE9
:10371000B0E0A0E08093090190930A01A0930B010F
:10372000B0930C01ADCE803269F48091E80082FF45
:10373000FCCF67E08DE091E00E94910B8BEF8093CE
:10374000E8009ECE823209F09BCE8F8980931401CF
:10375000EEEFFFE7859194918B3F9C4D51F1E0E0B6
:10376000F8E080910D0190910E01A0910F01B091B0
:103770001001803B9440A105B105F1F48091140142
:1037800080FD1AC0EE3F8AE0F80789F587E797E7E2
:1037900091838083809160008093A90288E19BE0FF
:1037A0000FB6F894A895809360000FBE90936000C8
:1037B00067CEEEEFFAE0D5CF8081918187379747CA
:1037C00009F05ECEA89580916000886180936000CA
:1037D0008091A90280936000EE3F2AE0F20789F011
:1037E0008091FE0A9091FF0A9183808349CE808167
:1037F00091818737980751F29093FF0A8093FE0AD0
:10380000C5CF1092FF0A1092FE0A3ACE0E94770AA4
:10381000DC0112960D911C910115110509F4E8CEF9
:10382000D801ED91FC910190F081E02DBE016B5E1D
:103830007F4FC8010995811123CEF80100851185BC
:10384000EBCF181619060CF41BCED2CEF1E0FF1206
:10385000BECE6BE072E104CF1F920F920FB60F92B3
:1038600011242F933F938F939F93AF93BF93809196
:103870009D0290919E02A0919F02B091A002309172
:103880009C0223E0230F2D3758F50196A11DB11D91
:1038900020939C0280939D0290939E02A0939F028E
:1038A000B093A0028091A1029091A202A091A302E4
:1038B000B091A4020196A11DB11D8093A102909325
:1038C000A202A093A302B093A402BF91AF919F91D3
:1038D0008F913F912F910F900FBE0F901F901895D1
:1038E00026E8230F0296A11DB11DD2CFEF92FF92C1
:1038F0000F931F93CF93DF93F82E192FE62E042FEB
:1039000081E0860F880F0E940C0B83E00E940C0B55
:10391000CF2DD12FEC0EFD2EF11CCE15DF05B9F009
:1039200007FF13C0FE0184910E940C0B182F80E04A
:103930000E940C0B812321968111EFCFDF91CF9153
:103940001F910F91FF90EF9008958881EDCF81E056
:10395000F5CF9091120230E020E0992361F0E92F39
:10396000EE0FFF0BE255FE4F208131819150909375
:10397000120211821082C90108951F93CF93DF9321
:10398000EBEBF6E01382128288EE93E0A0E0B0E069
:1039900084839583A683B7838EE891E091838083A7
:1039A0008FEF9FEF95878487E1E1F7E01382128222
:1039B00080EA91E09183808387E090E00E9459281B
:1039C000FC0112821082138214821682158216E480
:1039D0001183CBE0D7E09983888387E090E00E9451
:1039E0005928FC01128210821382148216821582D9
:1039F00011839B838A8387E090E00E945928FC0111
:103A000012821082138214821682158211839D8382
:103A10008C83DF91CF911F910895CF93DF93CDB722
:103A2000DEB768970FB6F894DEBF0FBECDBF7894AF
:103A300084B5826084BD84B5816084BD85B58260B3
:103A400085BD85B5816085BD80916E008160809364
:103A50006E001092810080918100826080938100CD
:103A600080918100816080938100809180008160DD
:103A7000809380008091910082608093910080917A
:103A8000910081608093910080919000816080938B
:103A900090008091C10084608093C1008091C1003A
:103AA00082608093C1008091C10081608093C100D9
:103AB0008091C30081608093C3008091C0008260C8
:103AC0008093C0008091C20081608093C200809189
:103AD0007A00846080937A0080917A00826080937B
:103AE0007A0080917A00816080937A0080917A00D8
:103AF000806880937A001092BA021092AA02109203
:103B0000AC028091D70081608093D70080EA8093D7
:103B1000D80089B5806189BD89B5826089BD09B445
:103B200000FEFDCF61E070E080E090E00E94C30BFA
:103B30008091D8008F7C80618093D8008091E000D4
:103B4000807F8093E0008091E1008E7E8093E10091
:103B50008DE08093E200559A209A81EC80937C005E
:103B600085B1806F85B984B1877E84B984B1876E51
:103B700084B95E9A5F988AB1806D8AB9769A6E9898
:103B800081B3806F81BB899880B38D7080BB80E5E5
:103B90008CBD81E08DBD85E090E00E94B20E5F9A01
:103BA00085E090E00E94B20E5E985C98E2E9F7E052
:103BB00084918EBD00000DB407FEFDCF319607E065
:103BC000EF39F007A9F75C9A81E88093640080914F
:103BD00065008160809365000E94DF0E0E94B70E31
:103BE00002E010E087FF15C05C9885EA8EBD0000FA
:103BF0000DB407FEFDCF5C9A2E982F982D988091DA
:103C0000640080628093640081E083BF889513BE66
:103C1000FCCF0E94B70E82FF40C02D980E94B70EC5
:103C200084788438C1F40E94B00E88EC90E00E9441
:103C3000B20E2F981A8309836FEFCE0101960E946E
:103C40003F1984EF91E00E94B20E2F9A0E94B70EA6
:103C500084788438D9F30E94B70E84718431C1F41A
:103C60000E94B00E88EC90E00E94B20E2E981A834B
:103C7000098360E0CE0101960E943F1984EF91E034
:103C80000E94B20E2E9A0E94B70E84718431D9F32D
:103C900088EC90E00E94B20EBCCF0E94B00E82E091
:103CA00090E00E946B18882309F4E6C03E9A3F9A80
:103CB00081E090E00E946B18182F147081FF0EC0F5
:103CC00011112E98F1EFEF2EFF24FA940E94B70EF7
:103CD00086FFD5C02E9A2F9A0E94B00E82E390E004
:103CE0000E94B20E0E94B70E8111F8CF81E280933C
:103CF0000001809164008E7F8093640080917A003F
:103D0000806480937A0080917A0086FDFCCF0091D8
:103D10007800109179000E949E0BAB01BC01C80194
:103D2000B0E0A0E0DC01992788278C019D01040FF9
:103D3000151F261F371FC901B8012091640021609B
:103D400020936400611571058105910511F00E94B1
:103D5000192A9E012F5F3F4F590178E8C72ED12CB9
:103D6000122FFB2CC6010E94222AD5018D935D01E2
:103D7000BFEFCB1ADB0AEDE8CE16D10499F768EA5B
:103D800071E0812F9F2D0E946C2C892B49F186E0D8
:103D9000E8EAF1E0A12FBF2D01900D928A95E1F79D
:103DA000A12EBF2C68E8C62ED12CD5016D915D01E6
:103DB000DC86CB86CE010B960E943F19BFEFCB1A53
:103DC000DB0AEDE8CE16D10481F71B861C861D8622
:103DD0001E86BE01655F7F4F8DE890E00E945819F6
:103DE00010929A028EE180939B0285E090E00E94FF
:103DF0005928FC01108211821482909380028093D2
:103E00007F025BE1C52E52E0D52E05E056014AE067
:103E1000E42E84E090E00E945928FC011182108277
:103E200012821382D5018D939C93EA94BAE0AB0E73
:103E3000B11CE110EECF0150E2E0CE0ED11C011119
:103E4000E5CF36E0E32E8FB7F89440919D02509174
:103E50009E0260919F027091A0028FBF8091150217
:103E6000882309F469C01092150280E090E0892B44
:103E700051F30E940000E5CF3E983F9819CF1123DF
:103E800031F024E0E216F10411F42E9A2F9881E02B
:103E90000E94440900E128E542EE56E0B70184E1C2
:103EA00090E00E9481090E94DF0E8FE090E00E9466
:103EB000B20E3FEFE31AF30A69E1E616F10409F0E6
:103EC00005CF112311F02F9A2D9880E991E00E94DF
:103ED000B20E0E94B00E81E090E00E946B1880FF4D
:103EE000FDCE8AE090E00E946B189FEF980F9E3FF6
:103EF00008F0F4CE22E330E030931A022093190246
:103F000028E330E030931802209317020BE010E012
:103F1000682F81E197E00E94000FC8010E946B1892
:103F20000F5F1F4F0131110599F70E94DF0E88EED8
:103F300093E00E94B20ED2CE80911602F42FF81BAD
:103F40008F2F90910001F91748F48F5F891708F0BF
:103F50008CCF81E083BF889513BE87CF81E08093AB
:103F6000150240931602809113029091140201965B
:103F70009093140280931302809199028093980287
:103F80000E94B70E8093990280919B02815018166F
:103F90000CF078C080939B0280919A02811192C1AB
:103FA00088E00E94D40E882309F474C000E0D12C6C
:103FB000602F8D2D0E947910D3942AE0D212F8CF71
:103FC0000F5F0530A1F7E0910B07F0910C0712820B
:103FD000E0910D07F0910E071282E0910F07F0912A
:103FE00010071282809195028093940210929002A1
:103FF00010929102109292021092930210928F02EC
:1040000010928E0210928A0210928B0210928C02F1
:1040100010928D02109289021092880210928702EB
:1040200010928602109285021092840210928302EE
:1040300010928202109281028FEF8093040180938C
:1040400003018093020180930101E0917F02F091CE
:10405000800280818283818183831082118204E0C7
:104060000E946D180E94CA2922E030E040E050E032
:104070000E94382AD62E80E08D1534F40E949510C7
:1040800081E0FACF8EE186CF015051F781E0809335
:104090009A0242C00E94B70E87FF31C040910501CD
:1040A000509106016091070170910801809196027C
:1040B00090919702019690939702809396028D3289
:1040C000914054F1452B462B472B09F452C01F86D3
:1040D000188A198A1A8ABE01615F7F4F8DE890E0C5
:1040E0000E945819109205011092060110920701C2
:1040F0001092080110929702109296020DC080E271
:104100000E94D40E882309F4C9C080919502181624
:104110001CF48150809395028091050190910601D5
:10412000A0910701B09108018F3F9F4FAF4FBF4F44
:1041300001F58DE890E00E94222A89838EE890E0C4
:104140000E94222A8A838FE890E00E94222A8B8391
:1041500080E990E00E94222A8C8389819A81AB8138
:10416000BC818093050190930601A0930701B09351
:1041700008010E94BF0E00E420E845EC5DE070E01D
:1041800060E090E080E00E9481091C821B8286E74B
:1041900091E09A83898388E08A8781E089871E82FB
:1041A0001D8288878091050190910601A0910701E9
:1041B000B0910801181619061A061B06A4F482E02D
:1041C0008F836AEB7DE0812F9F2D0E947B0C4091B5
:1041D0000501509106016091070170910801812F3E
:1041E0009F2D0E942F1880919B028F305CF488E1F4
:1041F0008E838D8384E28F8369EA7DE0812F9F2DFA
:104200000E947B0C1E821D8280E38F8361EA7DE029
:10421000812F9F2D0E947B0C60919502062E000C31
:10422000770B812F9F2D0E9465186FE97DE0812F0C
:104230009F2D0E947B0C80919502181634F46DE935
:104240007DE0812F9F2D0E947B0C809195028A300A
:1042500034F46BE97DE0812F9F2D0E947B0C1E8240
:104260001D8208E30F8362E97DE0812F9F2D0E946C
:104270007B0C89E58E838D830F836DE87DE0812F34
:104280009F2D0E947B0C44E050E06EE771E0812F8F
:104290009F2D0E949F0C0E94DF0EE7CD80E40E94BC
:1042A000D40E882339F0809195028A300CF034CFF7
:1042B0008F5F30CF84E00E94D40E882309F41ACF98
:1042C00084E0E5CE813009F036C50E94BF0EA09093
:1042D0008602B0908702A114B10461F480918E022D
:1042E00090918F02181619062CF4019790938F0263
:1042F00080938E028091890218160CF03CC2815086
:1043000080938902811138C03091040180910301AA
:1043100025E03203F0011124E80FF11D87FDFA9525
:10432000EE0FFF1FE55EFD4FA081B1819C911196BC
:104330008C91119740910201309101014203F001EB
:104340001124E30FF11D37FDFA95EE0FFF1FE55E17
:10435000FD4F0190F081E02D20812C932181119659
:104360002C93908381838FEF8093040180930301CA
:10437000809302018093010180918802882341F19A
:104380008091860290918702892B09F0E1C22BE18E
:1043900032E085E041E0F90190E0A081B1815C91DB
:1043A000552339F012965C911297552311F013960C
:1043B0004C933A969F5F9A3081F781502E5F3F4F22
:1043C0008111E9CF8AE590E090938702809386027D
:1043D0008091860290918702181619062CF4019795
:1043E0009093870280938602809186029091870243
:1043F000019709F0B2C0FBE1CF2EF2E0DF2E00E022
:10440000912C5601812CD501ED91FC91808188235E
:1044100041F08381882329F0692D882D0E9479102D
:104420000F5FBAE0AB0EB11C8394EAE08E12EBCFC3
:10443000F2E0CF0ED11C939425E09212E2CF101639
:104440000CF047C0E02FEE0FFF0BE95DF24F4591F6
:10445000549180918202882321F0440F551F1092BD
:1044600082024A01052E000CAA08BB088091900226
:1044700090919102A0919202B0919302880D991DA2
:10448000AA1DBB1D8093900290939102A09392026B
:10449000B0939302602F81E00E94551080919402A6
:1044A0008A30BCF4E82FEE0FFF0BE25AFE4F40813A
:1044B00051812091840230918502421753074CF4B8
:1044C0008F5F8093940250E040E060E084E00E94BF
:1044D000551080E020E035E02303F0011124E80FBF
:1044E000F11D87FDFA95EE0FFF1FE55EFD4F019070
:1044F000F081E02D9081911162C22F5F91E02A300E
:1045000059F78F5F853009F055C2992331F1E09159
:104510009402EE0FFF0BE85BFE4F80819181092E24
:10452000000CAA0BBB0B409190025091910260913C
:10453000920270919302840F951FA61FB71F80935C
:10454000900290939102A0939202B093930250E054
:1045500040E060E085E00E9455100E94F810109243
:10456000880200E420E848EC58E070E060E090E069
:1045700080E00E94810960918E0270918F02072E67
:10458000000C880B990B0E94452B20918A023091D8
:104590008B0240918C0250918D020E949B2A20E058
:1045A00030E04AE852E40E94D12B0E940D2B462FA6
:1045B00022E06DE370E08EE190E00E948C0F1C829F
:1045C0001B8286E791E09A83898388E08A8781E06D
:1045D0008987888786E18E838D8384E08F836091CD
:1045E00094026A3009F0EDC187E08E838D836DEE11
:1045F0007CE0812F9F2D0E947B0C809090029090F8
:104600009102A0909202B0909302C501B4010E9461
:10461000C51026E030E0281B310987FD3395822F35
:10462000880F880F820F83508E838D8382E18F8362
:10463000B501A401812F9F2D0E942F188091900217
:1046400090919102A0919202B09193024091050144
:1046500050910601609107017091080148175907B0
:104660006A077B0744F48093050190930601A093A9
:104670000701B09308018090050190900601A09079
:104680000701B0900801C501B4010E94C51026E0E1
:1046900030E0281B310987FD3395822F880F880F62
:1046A000820F8F598E838D8380E18F83B501A401A2
:1046B000812F9F2D0E942F184BE0C42E47E0D42E4F
:1046C00052E2B52E6BEFA62ED601ED91FC918281C0
:1046D000882309F4C3C1818100E08A3054F42AE0C0
:1046E00030E0281B310987FD33952A9D002D1124C8
:1046F00004508081813009F06CC10E5F0E830D8300
:10470000BF826481062E000C770B812F9F2D0E94A3
:10471000651869EE7CE0812F9F2D0E947B0C0E8333
:104720000D8387E08B0D8F8367EE7CE0812F9F2DBB
:104730000E947B0CD601ED91FC9165817681812FE1
:104740009F2D0E946518D601ED91FC91818118166C
:104750000CF482C18381E0910B07F0910C079381E7
:10476000981739F0E0910D07F0910E079381981397
:104770003AC2128273C180918E0290918F021816F4
:10478000190604F10E946D182BE132E085E0F90171
:1047900090E0A081B181109711F012961C923A9688
:1047A0009F5F9A30B1F781502E5F3F4F8111EFCF5D
:1047B00000E041E060E0802F0E943D110F5F0A3071
:1047C000C1F7DACDC0907F02D0908002D601149656
:1047D0008C918823C9F080E20E94D40E882359F07E
:1047E000F601148283819281208122832181238397
:1047F00090838183C9CF88E00E94D40E882321F260
:1048000082E080939A02C0CF80E80E94D40E882371
:1048100091F0D60111968C91119718160CF0B4CF27
:104820009C9112969C93129713968C931397815098
:1048300011968C93A9CF80E10E94D40E882351F069
:10484000F601818188300CF09FCF90819283838321
:104850008F5FCFCF80E20E94D40E882389F0D601EB
:104860008C9118160CF090CF11969C91119712967E
:104870008C93129713969C93139781508C9384CFAB
:1048800080E40E94D40E882391F0F601808191810A
:1048900084302CF4828393838F5F808375CF21E0F3
:1048A000D6012483828393838FEF8083C1CF88E0F6
:1048B0000E94D40E882309F441C0F60181819081C1
:1048C000292F092E000C330B482F082E000C550BF6
:1048D000D901F5E08F02A00DB11D1124AA0FBB1F55
:1048E000A55EBD4FED91FC916081662319F0638157
:1048F00061114ACF4F5F5F4F65E0649FF001659F94
:10490000F00D1124E20FF31FEE0FFF1FE55EFD4FC8
:104910000190F081E02D2081222319F023812111C3
:1049200033CF80930401909303018F5F8093020142
:104930009093010183E08093890226CF84E00E9456
:10494000D40E882309F420CFAB2809F01DCF1ACF4D
:10495000ABE1CA2EA2E0DA2E05E088248394772406
:1049600073945601912CD501ED91FC91808188239F
:1049700099F08281882381F0838181110DC0838227
:1049800080918202811108C050E040E060E082E046
:104990000E94551070928202BAE0AB0EB11C939443
:1049A000EAE09E12E0CF0150F2E0CF0ED11C0111DF
:1049B000D8CF0ECD992309F4D0CD20E08DCD90E055
:1049C000A0CD062E000C770B812F9F2D0E9465181D
:1049D00014CE843061F40E5F0E830D838B0D8F83B4
:1049E00061EE7CE0812F9F2D0E947B0CACCE853048
:1049F000F1F40E5F0E830D83BF826BED7CE0812F9F
:104A00009F2D0E947B0C0E830D8387E08B0D8F837F
:104A100069ED7CE0812F9F2D0E947B0CE091940238
:104A2000EE0FFF0BE85BFE4F6081718188CE823014
:104A300009F089CE0E5F0E830D83BF8263ED7CE0AB
:104A4000812F9F2D0E947B0C0E830D8387E08B0DA1
:104A50008F836EEC7CE0C6CF81508183B2E0CB0EB9
:104A6000D11CEEE0BE0EFCE4BF122ECE85E292E039
:104A7000EBE1F2E0A191B1912C91211109C38E17C4
:104A80009F07C1F7C0907F02D0908002D601149694
:104A90008C911497882309F4AEC035E6C32ED12C2F
:104AA00020E049E067E370E0C6010E94630FBFEFBA
:104AB000CB1ADB0AE0E8CE16D10491F709E02BE12E
:104AC00041EF5CE067E370E085E690E00E948109D9
:104AD000EBE1F2E0FE8BED8B2EE1422E512C612CAE
:104AE00092012A5F3F4F3C8B2B8B12013CE0230E3F
:104AF000311C8D899E89988F8F8BD12CC12C2C2DA8
:104B0000AF89B88DED91FC918081882309F451C063
:104B1000A0917F02B09180028C91772473946812E7
:104B20000EC011968C91C81649F0082E000C990BF6
:104B30000196772473948C159D0509F4712C80914E
:104B400004012813A1C08091030168129DC08091C7
:104B5000890294E0A92EB12CA81AB10887FDB3945C
:104B6000AA0C8381882351F080918602909187025C
:104B700064E070E00E943E2C0297DCF48181811198
:104B800092C0EC9CC001ED9C900D11246A2DAA0CE2
:104B9000770B5C019C012B5F3F4F260F371FBFEF48
:104BA000AB1ABB0A6A0D7B1D072DA101C2010E9431
:104BB000B90F2FEFC21AD20A8F89988D0A96988F53
:104BC0008F8B9AE0C916D10409F099CFAEE04A0E56
:104BD000511CED89FE893296FE8BED8B6394F5E0D6
:104BE0006F127ECF58CBE0910F07F09110079381A1
:104BF000891334CFBECD8C9187FD04C011968C9162
:104C000087FF03C0F60110821182D60111968C91A4
:104C1000BE2D8B0240011124EFEF8E1A9E0AD601A1
:104C20008C91BEE08B02500111243501EEE16E0E35
:104C3000711CFBE2AF0EB11CA614B70451F021E0C9
:104C40004BE0B401C3010E94630F0FEF601A700ABA
:104C5000F3CFD60111968C911197082E000C990B69
:104C60000196E89EB001E99E700D11248C91BEE082
:104C70008B02C0011124AC01465D5F4F00E09B0137
:104C80004E960E94B90F24CF80910201281309C0CB
:104C900080910101681205C0609189026450A62EBE
:104CA0005FCFA12C5ECF813091F4EC9CC001ED9CD4
:104CB000900D11246A2DAA0C770B5C019C012F5FCB
:104CC0003F4F260F371FE5E0AE0EB11C6BCF823091
:104CD000F9F4EC9CC001ED9C900D11240A2C000C01
:104CE000BB084C01F3E08F0E911C8A0C9B1C0196B3
:104CF000A80EB91E072D94014B895C89B501C2012C
:104D00000E94B90F9501A101B4018B899C894FCFF5
:104D1000833009F04ECFEC9CC001ED9C900D112426
:104D20000A2C000CBB084C0103E0800E911C8A0C7D
:104D30009B1C0596DDCF8230A1F588E00E94D40E41
:104D4000882319F081E080939A028DE1C82ED12C3E
:104D500020E04CE370E060E0C6010E94630F0FEFBB
:104D6000C01AD00A23E6C216D10491F72DE347E416
:104D700070E060E08DE190E00E948C0F82E390E0B3
:104D800090931A02809319028CE190E0909318029C
:104D90008093170262EC78E081E197E00E947B0C3F
:104DA0007ACA833009F0B0C0009183020E310CF052
:104DB00051C0B02EBB0CB00ED12CC12C20E04B2D1D
:104DC00070E060E0C6010E94630F3FEFC31AD30A90
:104DD00060E8C616D10491F70E94DF0E0F5F0093C2
:104DE00083020E3109F041C88091900290919102A6
:104DF000A0919202B0919302409105015091060159
:104E0000609107017091080184179507A607B707FD
:104E10000CF42BC821E0209381028B879C87AD87FF
:104E2000BE87BE01655F7F4F8DE890E00E945819F4
:104E30008091900290919102A0919202B091930280
:104E40008093050190930601A0930701B093080198
:104E50000C94351F88E00E94D40E811110929A02A2
:104E600080918102882391F08EE190E090931A0264
:104E7000809319028EE090E09093180280931702BD
:104E800064EB78E081E197E00E947B0C88E290E09F
:104E900090931A02809319028CE190E0909318028B
:104EA000809317026AEA78E081E197E00E947B0C28
:104EB0006091900270919102809192029091930280
:104EC0000E94C510AAEF8A02C0011124C7969093D0
:104ED0001A028093190280E390E090931802809365
:104EE000170263EA78E081E197E00E947B0C409131
:104EF000900250919102609192027091930281E12F
:104F000097E00E942F18C7C9843009F06AC088E072
:104F10000E94D40E811105C084E00E94D40E882323
:104F200019F085E080939A020E94BF0E1C821B82BA
:104F3000E6E7F1E0FA83E98388E08A8781E0898700
:104F40001F8288878AE28E838D8369E978E0812FCA
:104F50009F2D0E947B0C02E00E830D8389E08F83DE
:104F600061E878E0812F9F2D0E947B0C0E830D83DA
:104F700080E18F8369E678E0812F9F2D0E947B0C72
:104F80000E830D8388E18F836BE578E0812F9F2D61
:104F90000E947B0C0E830D838FE18F8361E478E0A8
:104FA000812F9F2D0E947B0C0E830D8387E28F83C0
:104FB00068E278E0812F9F2D0E947B0C0E830D8389
:104FC0008EE28F8364E178E0812F9F2D0E947B0C1D
:104FD0000E830D8385E38F836CEF77E0812F9F2D08
:104FE000DDCE853011F00C94351F88E00E94D40E80
:104FF000811104C084E00E94D40E811110929A02A3
:105000000E94BF0E1C821B8226E731E03A8329836F
:1050100088E08A8781E089871F8288878AE28E8379
:105020008D8362EF77E0812F9F2D0E947B0C02E041
:105030000E830D8389E08F8369ED77E0812F9F2DAB
:105040000E947B0C0E830D8380E18F836AEC77E0F6
:10505000812F9F2D0E947B0C8DE28E838D838CE1AE
:105060008F8361EC77E0812F9F2D0E947B0C0E8354
:105070000D8385E28F8363EB77E0812F9F2D0E9464
:105080007B0C0E830D838EE28F836FE977E0A6CFD2
:1050900080919B028F300CF0F5CC86E68E838D8359
:1050A00081E08F8368EC7CE0812F9F2D0E947B0C38
:1050B000E9CC0F931F93CF93DF938230910510F4C7
:1050C00082E090E0E0911707F091180730E020E0CF
:1050D000B0E0A0E0309799F42115310509F44AC0F9
:1050E000281B390B24303105D8F58A819B81611545
:1050F000710589F1FB0193838283FE0111C0408118
:1051000051810281138148175907E0F04817590768
:1051100099F4109761F012960C93129713961C93C2
:105120003296CF01DF91CF911F910F910895009397
:10513000170710931807F4CF2115310551F04217C6
:10514000530738F0A901DB019A01BD01DF01F80125
:10515000C1CFEF01F9CF9093180780931707CDCFF8
:10516000FE01E20FF31F819391932250310939839D
:105170002883D7CF2091150730911607232B41F4B0
:1051800020911701309118013093160720931507CD
:1051900020911501309116012115310541F42DB7EB
:1051A0003EB74091190150911A01241B350BE09133
:1051B0001507F0911607E217F307A0F42E1B3F0B1B
:1051C0002817390778F0AC014E5F5F4F2417350779
:1051D00048F04E0F5F1F50931607409315078193B9
:1051E00091939FCFF0E0E0E09CCFCF93DF930097C7
:1051F000E9F0FC01329713821282A0911707B09157
:105200001807ED0130E020E01097A1F420813181F2
:10521000820F931F20911507309116072817390721
:1052200009F061C0F0931607E0931507DF91CF9165
:105230000895EA01CE17DF07E8F54A815B819E01F8
:1052400041155105B1F7E901FB83EA834991599171
:10525000C40FD51FEC17FD0761F480819181029680
:10526000840F951FE90199838883828193819B83B1
:105270008A83F0E0E0E012968D919C91139700975D
:10528000B9F52D913C911197CD010296820F931F94
:1052900020911507309116072817390739F63097EE
:1052A00051F51092180710921707B0931607A093A4
:1052B0001507BCCFD383C28340815181840F951FD2
:1052C000C817D90761F44E5F5F4F88819981480FF5
:1052D000591F518340838A819B8193838283211547
:1052E000310509F0B0CFF0931807E09317079ECF70
:1052F000FD01DC01C0CF13821282D7CF8F929F9223
:10530000AF92BF92CF92DF92EF92FF92CF93DF9353
:10531000EC01688179818A819B8161157105810524
:10532000910521F464E279ED8BE597E02DE133EF0F
:1053300041E050E00E94382A49015A019B01AC012A
:10534000A7EAB1E40E94572A6B017C01ACEEB4EFEE
:10535000A50194010E94652AC60ED71EE81EF91EFB
:10536000F7FE06C081E0C81AD108E10880E8F80A13
:10537000C882D982EA82FB82C701B6019F77DF919A
:10538000CF91FF90EF90DF90CF90BF90AF909F9024
:105390008F9008958F929F92AF92BF92CF92DF929B
:1053A000EF92FF9260911B0170911C0180911D0191
:1053B00090911E01611571058105910521F464E24A
:1053C00079ED8BE597E02DE133EF41E050E00E946D
:1053D000382A49015A019B01AC01A7EAB1E40E94B5
:1053E000572A6B017C01ACEEB4EFA50194010E9439
:1053F000652AC60ED71EE81EF91EF7FE06C081E01C
:10540000C81AD108E10880E8F80AC0921B01D092BE
:105410001C01E0921D01F0921E01C701B6019F77A9
:10542000FF90EF90DF90CF90BF90AF909F908F90C4
:10543000089560931B0170931C0180931D0190934C
:105440001E010895F999FECF92BD81BDF89A992762
:1054500080B50895262FF999FECF1FBA92BD81BD60
:1054600020BD0FB6F894FA9AF99A0FBE01960895E6
:10547000052E97FB1EF400940E944F2A57FD07D07B
:105480000E946A2A07FC03D04EF40C944F2A5095D0
:105490004095309521953F4F4F4F5F4F0895909520
:1054A0008095709561957F4F8F4F9F4F08950E9413
:1054B0008C2AA59F900DB49F900DA49F800D911DE7
:1054C00011240895B7FF0C94572A0E94572A821B73
:1054D000930B0895A1E21A2EAA1BBB1BFD010DC060
:1054E000AA1FBB1FEE1FFF1FA217B307E407F50794
:1054F00020F0A21BB30BE40BF50B661F771F881F70
:10550000991F1A9469F760957095809590959B0105
:10551000AC01BD01CF010895A29FB001B39FC001AE
:10552000A39F700D811D1124911DB29F700D811DCF
:105530001124911D08950E94AF2A0C94972B0E946C
:10554000902B58F00E94892B40F029F45F3F29F0FE
:105550000C94802B51110C94CB2B0C94862B0E9415
:10556000A82B68F39923B1F3552391F3951B550BA1
:10557000BB27AA2762177307840738F09F5F5F4F26
:10558000220F331F441FAA1FA9F335D00E2E3AF065
:10559000E0E832D091505040E695001CCAF72BD07D
:1055A000FE2F29D0660F771F881FBB1F26173707CE
:1055B0004807AB07B0E809F0BB0B802DBF01FF2700
:1055C00093585F4F3AF09E3F510578F00C94802B32
:1055D0000C94CB2B5F3FE4F3983ED4F386957795FC
:1055E0006795B795F7959F5FC9F7880F911D9695B9
:1055F000879597F90895E1E0660F771F881FBB1F15
:10560000621773078407BA0720F0621B730B840BC1
:10561000BA0BEE1F88F7E09508950E94142B68944A
:10562000B1110C94CB2B08950E94B02B88F09F579A
:1056300098F0B92F9927B751B0F0E1F0660F771FB6
:10564000881F991F1AF0BA95C9F714C0B13091F0AC
:105650000E94CA2BB1E008950C94CA2B672F782FB3
:105660008827B85F39F0B93FCCF386957795679571
:10567000B395D9F73EF490958095709561957F4FDD
:105680008F4F9F4F0895E89409C097FB3EF4909583
:105690008095709561957F4F8F4F9F4F9923A9F00B
:1056A000F92F96E9BB279395F6958795779567959A
:1056B000B795F111F8CFFAF4BB0F11F460FF1BC0DE
:1056C0006F5F7F4F8F4F9F4F16C0882311F096E971
:1056D00011C0772321F09EE8872F762F05C066231F
:1056E00071F096E8862F70E060E02AF09A95660FD8
:1056F000771F881FDAF7880F9695879597F9089591
:1057000097F99F6780E870E060E008959FEF80EC74
:10571000089500240A941616170618060906089517
:1057200000240A9412161306140605060895092E7D
:105730000394000C11F4882352F0BB0F40F4BF2BEC
:1057400011F460FF04C06F5F7F4F8F4F9F4F08952C
:1057500057FD9058440F551F59F05F3F71F0479522
:10576000880F97FB991F61F09F3F79F08795089507
:10577000121613061406551FF2CF4695F1DF08C026
:10578000161617061806991FF1CF86957105610543
:1057900008940895E894BB2766277727CB0197F9EB
:1057A00008950E94E42B0C94972B0E94892B38F0CB
:1057B0000E94902B20F0952311F00C94802B0C94D8
:1057C000862B11240C94CB2B0E94A82B70F3959F51
:1057D000C1F3950F50E0551F629FF001729FBB27E8
:1057E000F00DB11D639FAA27F00DB11DAA1F649F84
:1057F0006627B00DA11D661F829F2227B00DA11D37
:10580000621F739FB00DA11D621F839FA00D611DBC
:10581000221F749F3327A00D611D231F849F600DDD
:10582000211D822F762F6A2F11249F5750409AF006
:10583000F1F088234AF0EE0FFF1FBB1F661F771F92
:10584000881F91505040A9F79E3F510580F00C945D
:10585000802B0C94CB2B5F3FE4F3983ED4F38695DA
:1058600077956795B795F795E7959F5FC1F7FE2BFD
:10587000880F911D9695879597F9089597FB072EA8
:1058800016F4009407D077FD09D00E94522C07FC33
:1058900005D03EF4909581959F4F08957095619540
:1058A0007F4F0895AA1BBB1B51E107C0AA1FBB1F56
:1058B000A617B70710F0A61BB70B881F991F5A959C
:1058C000A9F780959095BC01CD010895EE0FFF1FBB
:1058D0000590F491E02D0994FB01DC018D9101907C
:0E58E00080190110D9F3990B0895F894FFCFA9
:1058EE0010FFFFFFFFFFFFFFFFFFFFFFFF00E100C5
:1058FE000000000000000019078000010000000AEF
:10590E0000000064000000E803000010270000A063
:10591E00860100FFFFFFFFFF00010203040D0C0BC9
:10592E000A0908070605040364006400C8002C0178
:10593E009001F4015802BC0220038403E8031E0008
:10594E003C0064008C00B400DC0004012C015E01FC
:10595E00900100000000FB169F0CD317D217302EBB
:10596E0039320000C18081000000000000008B0A67
:10597E00F60BAC0AA10AF20AB00ACE0A0000000029
:0E598E00000F9F0CD317D21747554E505900EB
:00000001FF
